{
  "contractName": "Dex",
  "abi": [
    {
      "anonymous": false,
      "inputs": [
        {
          "indexed": true,
          "internalType": "address",
          "name": "previousOwner",
          "type": "address"
        },
        {
          "indexed": true,
          "internalType": "address",
          "name": "newOwner",
          "type": "address"
        }
      ],
      "name": "OwnershipTransferred",
      "type": "event"
    },
    {
      "inputs": [
        {
          "internalType": "bytes32",
          "name": "ticker",
          "type": "bytes32"
        },
        {
          "internalType": "address",
          "name": "tokenAddress",
          "type": "address"
        }
      ],
      "name": "addToken",
      "outputs": [],
      "stateMutability": "nonpayable",
      "type": "function"
    },
    {
      "inputs": [
        {
          "internalType": "address",
          "name": "",
          "type": "address"
        },
        {
          "internalType": "bytes32",
          "name": "",
          "type": "bytes32"
        }
      ],
      "name": "balances",
      "outputs": [
        {
          "internalType": "uint256",
          "name": "",
          "type": "uint256"
        }
      ],
      "stateMutability": "view",
      "type": "function",
      "constant": true
    },
    {
      "inputs": [
        {
          "internalType": "uint256",
          "name": "amount",
          "type": "uint256"
        },
        {
          "internalType": "bytes32",
          "name": "ticker",
          "type": "bytes32"
        }
      ],
      "name": "deposit",
      "outputs": [],
      "stateMutability": "nonpayable",
      "type": "function"
    },
    {
      "inputs": [],
      "name": "depositEth",
      "outputs": [],
      "stateMutability": "payable",
      "type": "function",
      "payable": true
    },
    {
      "inputs": [],
      "name": "nextOrderId",
      "outputs": [
        {
          "internalType": "uint256",
          "name": "",
          "type": "uint256"
        }
      ],
      "stateMutability": "view",
      "type": "function",
      "constant": true
    },
    {
      "inputs": [
        {
          "internalType": "bytes32",
          "name": "",
          "type": "bytes32"
        },
        {
          "internalType": "uint256",
          "name": "",
          "type": "uint256"
        },
        {
          "internalType": "uint256",
          "name": "",
          "type": "uint256"
        }
      ],
      "name": "orderBook",
      "outputs": [
        {
          "internalType": "uint256",
          "name": "id",
          "type": "uint256"
        },
        {
          "internalType": "address",
          "name": "trader",
          "type": "address"
        },
        {
          "internalType": "enum Dex.Side",
          "name": "side",
          "type": "uint8"
        },
        {
          "internalType": "bytes32",
          "name": "ticker",
          "type": "bytes32"
        },
        {
          "internalType": "uint256",
          "name": "amount",
          "type": "uint256"
        },
        {
          "internalType": "uint256",
          "name": "price",
          "type": "uint256"
        },
        {
          "internalType": "uint256",
          "name": "filled",
          "type": "uint256"
        }
      ],
      "stateMutability": "view",
      "type": "function",
      "constant": true
    },
    {
      "inputs": [],
      "name": "owner",
      "outputs": [
        {
          "internalType": "address",
          "name": "",
          "type": "address"
        }
      ],
      "stateMutability": "view",
      "type": "function",
      "constant": true
    },
    {
      "inputs": [],
      "name": "renounceOwnership",
      "outputs": [],
      "stateMutability": "nonpayable",
      "type": "function"
    },
    {
      "inputs": [
        {
          "internalType": "uint256",
          "name": "",
          "type": "uint256"
        }
      ],
      "name": "tokenList",
      "outputs": [
        {
          "internalType": "bytes32",
          "name": "",
          "type": "bytes32"
        }
      ],
      "stateMutability": "view",
      "type": "function",
      "constant": true
    },
    {
      "inputs": [
        {
          "internalType": "bytes32",
          "name": "",
          "type": "bytes32"
        }
      ],
      "name": "tokenMapping",
      "outputs": [
        {
          "internalType": "bytes32",
          "name": "ticker",
          "type": "bytes32"
        },
        {
          "internalType": "address",
          "name": "tokenAddress",
          "type": "address"
        }
      ],
      "stateMutability": "view",
      "type": "function",
      "constant": true
    },
    {
      "inputs": [
        {
          "internalType": "address",
          "name": "newOwner",
          "type": "address"
        }
      ],
      "name": "transferOwnership",
      "outputs": [],
      "stateMutability": "nonpayable",
      "type": "function"
    },
    {
      "inputs": [
        {
          "internalType": "uint256",
          "name": "amount",
          "type": "uint256"
        },
        {
          "internalType": "bytes32",
          "name": "ticker",
          "type": "bytes32"
        }
      ],
      "name": "withdraw",
      "outputs": [],
      "stateMutability": "nonpayable",
      "type": "function"
    },
    {
      "inputs": [
        {
          "internalType": "uint256",
          "name": "amount",
          "type": "uint256"
        }
      ],
      "name": "withdrawEth",
      "outputs": [],
      "stateMutability": "nonpayable",
      "type": "function"
    },
    {
      "inputs": [
        {
          "internalType": "bytes32",
          "name": "ticker",
          "type": "bytes32"
        },
        {
          "internalType": "enum Dex.Side",
          "name": "side",
          "type": "uint8"
        }
      ],
      "name": "getOrderBook",
      "outputs": [
        {
          "components": [
            {
              "internalType": "uint256",
              "name": "id",
              "type": "uint256"
            },
            {
              "internalType": "address",
              "name": "trader",
              "type": "address"
            },
            {
              "internalType": "enum Dex.Side",
              "name": "side",
              "type": "uint8"
            },
            {
              "internalType": "bytes32",
              "name": "ticker",
              "type": "bytes32"
            },
            {
              "internalType": "uint256",
              "name": "amount",
              "type": "uint256"
            },
            {
              "internalType": "uint256",
              "name": "price",
              "type": "uint256"
            },
            {
              "internalType": "uint256",
              "name": "filled",
              "type": "uint256"
            }
          ],
          "internalType": "struct Dex.Order[]",
          "name": "",
          "type": "tuple[]"
        }
      ],
      "stateMutability": "view",
      "type": "function",
      "constant": true
    },
    {
      "inputs": [
        {
          "internalType": "enum Dex.Side",
          "name": "side",
          "type": "uint8"
        },
        {
          "internalType": "bytes32",
          "name": "ticker",
          "type": "bytes32"
        },
        {
          "internalType": "uint256",
          "name": "amount",
          "type": "uint256"
        },
        {
          "internalType": "uint256",
          "name": "price",
          "type": "uint256"
        }
      ],
      "name": "createLimitOrder",
      "outputs": [],
      "stateMutability": "nonpayable",
      "type": "function"
    },
    {
      "inputs": [
        {
          "internalType": "enum Dex.Side",
          "name": "side",
          "type": "uint8"
        },
        {
          "internalType": "bytes32",
          "name": "ticker",
          "type": "bytes32"
        },
        {
          "internalType": "uint256",
          "name": "amount",
          "type": "uint256"
        }
      ],
      "name": "createMarketOrder",
      "outputs": [],
      "stateMutability": "nonpayable",
      "type": "function"
    }
  ],
  "bytecode": "0x608060405260006004553480156200001657600080fd5b50620000376200002b6200003d60201b60201c565b6200004560201b60201c565b62000109565b600033905090565b60008060009054906101000a900473ffffffffffffffffffffffffffffffffffffffff169050816000806101000a81548173ffffffffffffffffffffffffffffffffffffffff021916908373ffffffffffffffffffffffffffffffffffffffff1602179055508173ffffffffffffffffffffffffffffffffffffffff168173ffffffffffffffffffffffffffffffffffffffff167f8be0079c531659141344cd1fd0a4f28419497f9722a3daafe3b4186f6b6457e060405160405180910390a35050565b613fc980620001196000396000f3fe6080604052600436106100f35760003560e01c80639776aacf1161008a578063ba58ea6811610059578063ba58ea681461030e578063c311d0491461034b578063c9630cb014610374578063f2fde38b1461039d576100f3565b80639776aacf1461025657806399ec2f1c1461027f5780639ead7222146102a8578063a8d2021a146102e5576100f3565b8063667cb4ba116100c6578063667cb4ba146101ad5780636f3b62f9146101eb578063715018a6146102145780638da5cb5b1461022b576100f3565b80630bb431b6146100f85780631f14df691461013b5780632a58b33014610178578063439370b1146101a3575b600080fd5b34801561010457600080fd5b5061011f600480360381019061011a91906131f0565b6103c6565b6040516101329796959493929190613319565b60405180910390f35b34801561014757600080fd5b50610162600480360381019061015d91906133b4565b61045f565b60405161016f91906133f4565b60405180910390f35b34801561018457600080fd5b5061018d610484565b60405161019a91906133f4565b60405180910390f35b6101ab61048a565b005b3480156101b957600080fd5b506101d460048036038101906101cf919061340f565b610513565b6040516101e292919061343c565b60405180910390f35b3480156101f757600080fd5b50610212600480360381019061020d919061348a565b610557565b005b34801561022057600080fd5b50610229610f92565b005b34801561023757600080fd5b5061024061101a565b60405161024d91906134f1565b60405180910390f35b34801561026257600080fd5b5061027d6004803603810190610278919061350c565b611043565b005b34801561028b57600080fd5b506102a660048036038101906102a1919061354c565b61117e565b005b3480156102b457600080fd5b506102cf60048036038101906102ca919061359f565b612895565b6040516102dc91906135cc565b60405180910390f35b3480156102f157600080fd5b5061030c600480360381019061030791906135e7565b6128b9565b005b34801561031a57600080fd5b5061033560048036038101906103309190613627565b612b14565b60405161034291906137e0565b60405180910390f35b34801561035757600080fd5b50610372600480360381019061036d919061359f565b612c6d565b005b34801561038057600080fd5b5061039b600480360381019061039691906135e7565b612df1565b005b3480156103a957600080fd5b506103c460048036038101906103bf9190613802565b612fbb565b005b600560205282600052604060002060205281600052604060002081815481106103ee57600080fd5b906000526020600020906006020160009250925050508060000154908060010160009054906101000a900473ffffffffffffffffffffffffffffffffffffffff16908060010160149054906101000a900460ff16908060020154908060030154908060040154908060050154905087565b6003602052816000526040600020602052806000526040600020600091509150505481565b60045481565b34600360003373ffffffffffffffffffffffffffffffffffffffff1673ffffffffffffffffffffffffffffffffffffffff16815260200190815260200160002060007f45544800000000000000000000000000000000000000000000000000000000008152602001908152602001600020600082825461050a919061385e565b92505081905550565b60016020528060005260406000206000915090508060000154908060010160009054906101000a900473ffffffffffffffffffffffffffffffffffffffff16905082565b6000600181111561056b5761056a613293565b5b84600181111561057e5761057d613293565b5b141561061157808261059091906138b4565b600360003373ffffffffffffffffffffffffffffffffffffffff1673ffffffffffffffffffffffffffffffffffffffff16815260200190815260200160002060007f4554480000000000000000000000000000000000000000000000000000000000815260200190815260200160002054101561060c57600080fd5b61069c565b60018081111561062457610623613293565b5b84600181111561063757610636613293565b5b141561069b5781600360003373ffffffffffffffffffffffffffffffffffffffff1673ffffffffffffffffffffffffffffffffffffffff168152602001908152602001600020600085815260200190815260200160002054101561069a57600080fd5b5b5b60006005600085815260200190815260200160002060008660018111156106c6576106c5613293565b5b81526020019081526020016000209050806040518060e0016040528060045481526020013373ffffffffffffffffffffffffffffffffffffffff16815260200187600181111561071957610718613293565b5b8152602001868152602001858152602001848152602001600081525090806001815401808255809150506001900390600052602060002090600602016000909190919091506000820151816000015560208201518160010160006101000a81548173ffffffffffffffffffffffffffffffffffffffff021916908373ffffffffffffffffffffffffffffffffffffffff16021790555060408201518160010160146101000a81548160ff021916908360018111156107da576107d9613293565b5b0217905550606082015181600201556080820151816003015560a0820151816004015560c0820151816005015550506000600181111561081d5761081c613293565b5b8560018111156108305761082f613293565b5b1415610bc057600060018280549050610849919061390e565b90505b6000811115610bba5781818154811061086857610867613942565b5b90600052602060002090600602016004015482600183610888919061390e565b8154811061089957610898613942565b5b9060005260206000209060060201600401541015610ba7576000826001836108c1919061390e565b815481106108d2576108d1613942565b5b90600052602060002090600602016040518060e0016040529081600082015481526020016001820160009054906101000a900473ffffffffffffffffffffffffffffffffffffffff1673ffffffffffffffffffffffffffffffffffffffff1673ffffffffffffffffffffffffffffffffffffffff1681526020016001820160149054906101000a900460ff1660018111156109705761096f613293565b5b600181111561098257610981613293565b5b815260200160028201548152602001600382015481526020016004820154815260200160058201548152505090508282815481106109c3576109c2613942565b5b9060005260206000209060060201836001846109df919061390e565b815481106109f0576109ef613942565b5b9060005260206000209060060201600082015481600001556001820160009054906101000a900473ffffffffffffffffffffffffffffffffffffffff168160010160006101000a81548173ffffffffffffffffffffffffffffffffffffffff021916908373ffffffffffffffffffffffffffffffffffffffff1602179055506001820160149054906101000a900460ff168160010160146101000a81548160ff02191690836001811115610aa757610aa6613293565b5b02179055506002820154816002015560038201548160030155600482015481600401556005820154816005015590505080838381548110610aeb57610aea613942565b5b90600052602060002090600602016000820151816000015560208201518160010160006101000a81548173ffffffffffffffffffffffffffffffffffffffff021916908373ffffffffffffffffffffffffffffffffffffffff16021790555060408201518160010160146101000a81548160ff02191690836001811115610b7557610b74613293565b5b0217905550606082015181600201556080820151816003015560a0820151816004015560c08201518160050155905050505b8080610bb290613971565b91505061084c565b50610f73565b600180811115610bd357610bd2613293565b5b856001811115610be657610be5613293565b5b1415610f7257600060018280549050610bff919061390e565b90505b6000811115610f7057818181548110610c1e57610c1d613942565b5b90600052602060002090600602016004015482600183610c3e919061390e565b81548110610c4f57610c4e613942565b5b9060005260206000209060060201600401541115610f5d57600082600183610c77919061390e565b81548110610c8857610c87613942565b5b90600052602060002090600602016040518060e0016040529081600082015481526020016001820160009054906101000a900473ffffffffffffffffffffffffffffffffffffffff1673ffffffffffffffffffffffffffffffffffffffff1673ffffffffffffffffffffffffffffffffffffffff1681526020016001820160149054906101000a900460ff166001811115610d2657610d25613293565b5b6001811115610d3857610d37613293565b5b81526020016002820154815260200160038201548152602001600482015481526020016005820154815250509050828281548110610d7957610d78613942565b5b906000526020600020906006020183600184610d95919061390e565b81548110610da657610da5613942565b5b9060005260206000209060060201600082015481600001556001820160009054906101000a900473ffffffffffffffffffffffffffffffffffffffff168160010160006101000a81548173ffffffffffffffffffffffffffffffffffffffff021916908373ffffffffffffffffffffffffffffffffffffffff1602179055506001820160149054906101000a900460ff168160010160146101000a81548160ff02191690836001811115610e5d57610e5c613293565b5b02179055506002820154816002015560038201548160030155600482015481600401556005820154816005015590505080838381548110610ea157610ea0613942565b5b90600052602060002090600602016000820151816000015560208201518160010160006101000a81548173ffffffffffffffffffffffffffffffffffffffff021916908373ffffffffffffffffffffffffffffffffffffffff16021790555060408201518160010160146101000a81548160ff02191690836001811115610f2b57610f2a613293565b5b0217905550606082015181600201556080820151816003015560a0820151816004015560c08201518160050155905050505b8080610f6890613971565b915050610c02565b505b5b60046000815480929190610f869061399b565b91905055505050505050565b610f9a6130b3565b73ffffffffffffffffffffffffffffffffffffffff16610fb861101a565b73ffffffffffffffffffffffffffffffffffffffff161461100e576040517f08c379a000000000000000000000000000000000000000000000000000000000815260040161100590613a41565b60405180910390fd5b61101860006130bb565b565b60008060009054906101000a900473ffffffffffffffffffffffffffffffffffffffff16905090565b61104b6130b3565b73ffffffffffffffffffffffffffffffffffffffff1661106961101a565b73ffffffffffffffffffffffffffffffffffffffff16146110bf576040517f08c379a00000000000000000000000000000000000000000000000000000000081526004016110b690613a41565b60405180910390fd5b60405180604001604052808381526020018273ffffffffffffffffffffffffffffffffffffffff16815250600160008481526020019081526020016000206000820151816000015560208201518160010160006101000a81548173ffffffffffffffffffffffffffffffffffffffff021916908373ffffffffffffffffffffffffffffffffffffffff16021790555090505060028290806001815401808255809150506001900390600052602060002001600090919091909150555050565b600080600181111561119357611192613293565b5b8460018111156111a6576111a5613293565b5b14156111b5576001905061127a565b6001808111156111c8576111c7613293565b5b8460018111156111db576111da613293565b5b14156112795781600360003373ffffffffffffffffffffffffffffffffffffffff1673ffffffffffffffffffffffffffffffffffffffff1681526020019081526020016000206000858152602001908152602001600020541015611274576040517f08c379a000000000000000000000000000000000000000000000000000000000815260040161126b90613aad565b60405180910390fd5b600090505b5b60006005600085815260200190815260200160002060008381526020019081526020016000209050600083905060005b8280549050811080156112bd5750600082115b1561260a5760008382815481106112d7576112d6613942565b5b9060005260206000209060060201600501548483815481106112fc576112fb613942565b5b906000526020600020906006020160030154611318919061390e565b90506000600181111561132e5761132d613293565b5b88600181111561134157611340613293565b5b1415611c3b576000818411156117ca578185848154811061136557611364613942565b5b90600052602060002090600602016004015461138191906138b4565b8161138c919061385e565b905080600360003373ffffffffffffffffffffffffffffffffffffffff1673ffffffffffffffffffffffffffffffffffffffff16815260200190815260200160002060007f45544800000000000000000000000000000000000000000000000000000000008152602001908152602001600020541015611441576040517f08c379a000000000000000000000000000000000000000000000000000000000815260040161143890613b19565b60405180910390fd5b816003600087868154811061145957611458613942565b5b906000526020600020906006020160010160009054906101000a900473ffffffffffffffffffffffffffffffffffffffff1673ffffffffffffffffffffffffffffffffffffffff1673ffffffffffffffffffffffffffffffffffffffff16815260200190815260200160002060008a8152602001908152602001600020541015611518576040517f08c379a000000000000000000000000000000000000000000000000000000000815260040161150f90613bab565b60405180910390fd5b80600360003373ffffffffffffffffffffffffffffffffffffffff1673ffffffffffffffffffffffffffffffffffffffff16815260200190815260200160002060007f455448000000000000000000000000000000000000000000000000000000000081526020019081526020016000206000828254611598919061390e565b9250508190555081600360003373ffffffffffffffffffffffffffffffffffffffff1673ffffffffffffffffffffffffffffffffffffffff16815260200190815260200160002060008a815260200190815260200160002060008282546115ff919061385e565b92505081905550806003600087868154811061161e5761161d613942565b5b906000526020600020906006020160010160009054906101000a900473ffffffffffffffffffffffffffffffffffffffff1673ffffffffffffffffffffffffffffffffffffffff1673ffffffffffffffffffffffffffffffffffffffff16815260200190815260200160002060007f4554480000000000000000000000000000000000000000000000000000000000815260200190815260200160002060008282546116ca919061385e565b9250508190555081600360008786815481106116e9576116e8613942565b5b906000526020600020906006020160010160009054906101000a900473ffffffffffffffffffffffffffffffffffffffff1673ffffffffffffffffffffffffffffffffffffffff1673ffffffffffffffffffffffffffffffffffffffff16815260200190815260200160002060008a81526020019081526020016000206000828254611775919061390e565b92505081905550818584815481106117905761178f613942565b5b906000526020600020906006020160050160008282546117b0919061385e565b9250508190555081846117c3919061390e565b9350611c35565b838584815481106117de576117dd613942565b5b9060005260206000209060060201600401546117fa91906138b4565b81611805919061385e565b905080600360003373ffffffffffffffffffffffffffffffffffffffff1673ffffffffffffffffffffffffffffffffffffffff16815260200190815260200160002060007f455448000000000000000000000000000000000000000000000000000000000081526020019081526020016000205410156118ba576040517f08c379a00000000000000000000000000000000000000000000000000000000081526004016118b190613b19565b60405180910390fd5b83600360008786815481106118d2576118d1613942565b5b906000526020600020906006020160010160009054906101000a900473ffffffffffffffffffffffffffffffffffffffff1673ffffffffffffffffffffffffffffffffffffffff1673ffffffffffffffffffffffffffffffffffffffff16815260200190815260200160002060008a8152602001908152602001600020541015611991576040517f08c379a000000000000000000000000000000000000000000000000000000000815260040161198890613bab565b60405180910390fd5b80600360003373ffffffffffffffffffffffffffffffffffffffff1673ffffffffffffffffffffffffffffffffffffffff16815260200190815260200160002060007f455448000000000000000000000000000000000000000000000000000000000081526020019081526020016000206000828254611a11919061390e565b9250508190555083600360003373ffffffffffffffffffffffffffffffffffffffff1673ffffffffffffffffffffffffffffffffffffffff16815260200190815260200160002060008a81526020019081526020016000206000828254611a78919061385e565b925050819055508060036000878681548110611a9757611a96613942565b5b906000526020600020906006020160010160009054906101000a900473ffffffffffffffffffffffffffffffffffffffff1673ffffffffffffffffffffffffffffffffffffffff1673ffffffffffffffffffffffffffffffffffffffff16815260200190815260200160002060007f455448000000000000000000000000000000000000000000000000000000000081526020019081526020016000206000828254611b43919061385e565b925050819055508360036000878681548110611b6257611b61613942565b5b906000526020600020906006020160010160009054906101000a900473ffffffffffffffffffffffffffffffffffffffff1673ffffffffffffffffffffffffffffffffffffffff1673ffffffffffffffffffffffffffffffffffffffff16815260200190815260200160002060008a81526020019081526020016000206000828254611bee919061390e565b9250508190555083858481548110611c0957611c08613942565b5b90600052602060002090600602016005016000828254611c29919061385e565b92505081905550600093505b506125f6565b60006001811115611c4f57611c4e613293565b5b886001811115611c6257611c61613293565b5b14156125f557808311156121395780600360003373ffffffffffffffffffffffffffffffffffffffff1673ffffffffffffffffffffffffffffffffffffffff1681526020019081526020016000206000898152602001908152602001600020541015611d03576040517f08c379a0000000000000000000000000000000000000000000000000000000008152600401611cfa90613c17565b60405180910390fd5b838281548110611d1657611d15613942565b5b90600052602060002090600602016004015481611d3391906138b4565b60036000868581548110611d4a57611d49613942565b5b906000526020600020906006020160010160009054906101000a900473ffffffffffffffffffffffffffffffffffffffff1673ffffffffffffffffffffffffffffffffffffffff1673ffffffffffffffffffffffffffffffffffffffff16815260200190815260200160002060007f45544800000000000000000000000000000000000000000000000000000000008152602001908152602001600020541015611e29576040517f08c379a0000000000000000000000000000000000000000000000000000000008152600401611e2090613ca9565b60405180910390fd5b80600360003373ffffffffffffffffffffffffffffffffffffffff1673ffffffffffffffffffffffffffffffffffffffff16815260200190815260200160002060008981526020019081526020016000206000828254611e89919061390e565b92505081905550838281548110611ea357611ea2613942565b5b90600052602060002090600602016004015481611ec091906138b4565b600360003373ffffffffffffffffffffffffffffffffffffffff1673ffffffffffffffffffffffffffffffffffffffff16815260200190815260200160002060007f455448000000000000000000000000000000000000000000000000000000000081526020019081526020016000206000828254611f3f919061385e565b925050819055508060036000868581548110611f5e57611f5d613942565b5b906000526020600020906006020160010160009054906101000a900473ffffffffffffffffffffffffffffffffffffffff1673ffffffffffffffffffffffffffffffffffffffff1673ffffffffffffffffffffffffffffffffffffffff16815260200190815260200160002060008981526020019081526020016000206000828254611fea919061385e565b9250508190555083828154811061200457612003613942565b5b9060005260206000209060060201600401548161202191906138b4565b6003600086858154811061203857612037613942565b5b906000526020600020906006020160010160009054906101000a900473ffffffffffffffffffffffffffffffffffffffff1673ffffffffffffffffffffffffffffffffffffffff1673ffffffffffffffffffffffffffffffffffffffff16815260200190815260200160002060007f4554480000000000000000000000000000000000000000000000000000000000815260200190815260200160002060008282546120e4919061390e565b92505081905550808483815481106120ff576120fe613942565b5b9060005260206000209060060201600501600082825461211f919061385e565b925050819055508083612132919061390e565b92506125f4565b82600360003373ffffffffffffffffffffffffffffffffffffffff1673ffffffffffffffffffffffffffffffffffffffff16815260200190815260200160002060008981526020019081526020016000205410156121cc576040517f08c379a00000000000000000000000000000000000000000000000000000000081526004016121c390613c17565b60405180910390fd5b8382815481106121df576121de613942565b5b906000526020600020906006020160040154836121fc91906138b4565b6003600086858154811061221357612212613942565b5b906000526020600020906006020160010160009054906101000a900473ffffffffffffffffffffffffffffffffffffffff1673ffffffffffffffffffffffffffffffffffffffff1673ffffffffffffffffffffffffffffffffffffffff16815260200190815260200160002060007f455448000000000000000000000000000000000000000000000000000000000081526020019081526020016000205410156122f2576040517f08c379a00000000000000000000000000000000000000000000000000000000081526004016122e990613ca9565b60405180910390fd5b82600360003373ffffffffffffffffffffffffffffffffffffffff1673ffffffffffffffffffffffffffffffffffffffff16815260200190815260200160002060008981526020019081526020016000206000828254612352919061390e565b9250508190555083828154811061236c5761236b613942565b5b9060005260206000209060060201600401548361238991906138b4565b600360003373ffffffffffffffffffffffffffffffffffffffff1673ffffffffffffffffffffffffffffffffffffffff16815260200190815260200160002060007f455448000000000000000000000000000000000000000000000000000000000081526020019081526020016000206000828254612408919061385e565b92505081905550826003600086858154811061242757612426613942565b5b906000526020600020906006020160010160009054906101000a900473ffffffffffffffffffffffffffffffffffffffff1673ffffffffffffffffffffffffffffffffffffffff1673ffffffffffffffffffffffffffffffffffffffff168152602001908152602001600020600089815260200190815260200160002060008282546124b3919061385e565b925050819055508382815481106124cd576124cc613942565b5b906000526020600020906006020160040154836124ea91906138b4565b6003600086858154811061250157612500613942565b5b906000526020600020906006020160010160009054906101000a900473ffffffffffffffffffffffffffffffffffffffff1673ffffffffffffffffffffffffffffffffffffffff1673ffffffffffffffffffffffffffffffffffffffff16815260200190815260200160002060007f4554480000000000000000000000000000000000000000000000000000000000815260200190815260200160002060008282546125ad919061390e565b92505081905550828483815481106125c8576125c7613942565b5b906000526020600020906006020160050160008282546125e8919061385e565b92505081905550600092505b5b5b5080806126029061399b565b9150506112aa565b506000828054905090505b600081111561288c578260018261262c919061390e565b8154811061263d5761263c613942565b5b9060005260206000209060060201600501548360018361265d919061390e565b8154811061266e5761266d613942565b5b9060005260206000209060060201600301541415612879576000600182612695919061390e565b90505b600184805490506126a9919061390e565b8110156127ea57836001826126be919061385e565b815481106126cf576126ce613942565b5b90600052602060002090600602018482815481106126f0576126ef613942565b5b9060005260206000209060060201600082015481600001556001820160009054906101000a900473ffffffffffffffffffffffffffffffffffffffff168160010160006101000a81548173ffffffffffffffffffffffffffffffffffffffff021916908373ffffffffffffffffffffffffffffffffffffffff1602179055506001820160149054906101000a900460ff168160010160146101000a81548160ff021916908360018111156127a7576127a6613293565b5b02179055506002820154816002015560038201548160030155600482015481600401556005820154816005015590505080806127e29061399b565b915050612698565b50828054806127fc576127fb613cc9565b5b60019003818190600052602060002090600602016000808201600090556001820160006101000a81549073ffffffffffffffffffffffffffffffffffffffff02191690556001820160146101000a81549060ff02191690556002820160009055600382016000905560048201600090556005820160009055505090555b808061288490613971565b915050612615565b50505050505050565b600281815481106128a557600080fd5b906000526020600020016000915090505481565b80600073ffffffffffffffffffffffffffffffffffffffff166001600083815260200190815260200160002060010160009054906101000a900473ffffffffffffffffffffffffffffffffffffffff1673ffffffffffffffffffffffffffffffffffffffff161415612960576040517f08c379a000000000000000000000000000000000000000000000000000000000815260040161295790613d44565b60405180910390fd5b82600360003373ffffffffffffffffffffffffffffffffffffffff1673ffffffffffffffffffffffffffffffffffffffff16815260200190815260200160002060008481526020019081526020016000205410156129f3576040517f08c379a00000000000000000000000000000000000000000000000000000000081526004016129ea90613db0565b60405180910390fd5b82600360003373ffffffffffffffffffffffffffffffffffffffff1673ffffffffffffffffffffffffffffffffffffffff16815260200190815260200160002060008481526020019081526020016000206000828254612a53919061390e565b925050819055506001600083815260200190815260200160002060010160009054906101000a900473ffffffffffffffffffffffffffffffffffffffff1673ffffffffffffffffffffffffffffffffffffffff1663a9059cbb33856040518363ffffffff1660e01b8152600401612acb929190613dd0565b6020604051808303816000875af1158015612aea573d6000803e3d6000fd5b505050506040513d601f19601f82011682018060405250810190612b0e9190613e31565b50505050565b6060600560008481526020019081526020016000206000836001811115612b3e57612b3d613293565b5b8152602001908152602001600020805480602002602001604051908101604052809291908181526020016000905b82821015612c6157838290600052602060002090600602016040518060e0016040529081600082015481526020016001820160009054906101000a900473ffffffffffffffffffffffffffffffffffffffff1673ffffffffffffffffffffffffffffffffffffffff1673ffffffffffffffffffffffffffffffffffffffff1681526020016001820160149054906101000a900460ff166001811115612c1457612c13613293565b5b6001811115612c2657612c25613293565b5b815260200160028201548152602001600382015481526020016004820154815260200160058201548152505081526020019060010190612b6c565b50505050905092915050565b80600360003373ffffffffffffffffffffffffffffffffffffffff1673ffffffffffffffffffffffffffffffffffffffff16815260200190815260200160002060007f45544800000000000000000000000000000000000000000000000000000000008152602001908152602001600020541015612d20576040517f08c379a0000000000000000000000000000000000000000000000000000000008152600401612d1790613eaa565b60405180910390fd5b80600360003373ffffffffffffffffffffffffffffffffffffffff1673ffffffffffffffffffffffffffffffffffffffff16815260200190815260200160002060007f455448000000000000000000000000000000000000000000000000000000000081526020019081526020016000206000828254612da0919061390e565b925050819055503373ffffffffffffffffffffffffffffffffffffffff166108fc829081150290604051600060405180830381858888f19350505050158015612ded573d6000803e3d6000fd5b5050565b80600073ffffffffffffffffffffffffffffffffffffffff166001600083815260200190815260200160002060010160009054906101000a900473ffffffffffffffffffffffffffffffffffffffff1673ffffffffffffffffffffffffffffffffffffffff161415612e98576040517f08c379a0000000000000000000000000000000000000000000000000000000008152600401612e8f90613d44565b60405180910390fd5b6001600083815260200190815260200160002060010160009054906101000a900473ffffffffffffffffffffffffffffffffffffffff1673ffffffffffffffffffffffffffffffffffffffff166323b872dd3330866040518463ffffffff1660e01b8152600401612f0b93929190613eca565b6020604051808303816000875af1158015612f2a573d6000803e3d6000fd5b505050506040513d601f19601f82011682018060405250810190612f4e9190613e31565b5082600360003373ffffffffffffffffffffffffffffffffffffffff1673ffffffffffffffffffffffffffffffffffffffff16815260200190815260200160002060008481526020019081526020016000206000828254612faf919061385e565b92505081905550505050565b612fc36130b3565b73ffffffffffffffffffffffffffffffffffffffff16612fe161101a565b73ffffffffffffffffffffffffffffffffffffffff1614613037576040517f08c379a000000000000000000000000000000000000000000000000000000000815260040161302e90613a41565b60405180910390fd5b600073ffffffffffffffffffffffffffffffffffffffff168173ffffffffffffffffffffffffffffffffffffffff1614156130a7576040517f08c379a000000000000000000000000000000000000000000000000000000000815260040161309e90613f73565b60405180910390fd5b6130b0816130bb565b50565b600033905090565b60008060009054906101000a900473ffffffffffffffffffffffffffffffffffffffff169050816000806101000a81548173ffffffffffffffffffffffffffffffffffffffff021916908373ffffffffffffffffffffffffffffffffffffffff1602179055508173ffffffffffffffffffffffffffffffffffffffff168173ffffffffffffffffffffffffffffffffffffffff167f8be0079c531659141344cd1fd0a4f28419497f9722a3daafe3b4186f6b6457e060405160405180910390a35050565b600080fd5b6000819050919050565b61319781613184565b81146131a257600080fd5b50565b6000813590506131b48161318e565b92915050565b6000819050919050565b6131cd816131ba565b81146131d857600080fd5b50565b6000813590506131ea816131c4565b92915050565b6000806000606084860312156132095761320861317f565b5b6000613217868287016131a5565b9350506020613228868287016131db565b9250506040613239868287016131db565b9150509250925092565b61324c816131ba565b82525050565b600073ffffffffffffffffffffffffffffffffffffffff82169050919050565b600061327d82613252565b9050919050565b61328d81613272565b82525050565b7f4e487b7100000000000000000000000000000000000000000000000000000000600052602160045260246000fd5b600281106132d3576132d2613293565b5b50565b60008190506132e4826132c2565b919050565b60006132f4826132d6565b9050919050565b613304816132e9565b82525050565b61331381613184565b82525050565b600060e08201905061332e600083018a613243565b61333b6020830189613284565b61334860408301886132fb565b613355606083018761330a565b6133626080830186613243565b61336f60a0830185613243565b61337c60c0830184613243565b98975050505050505050565b61339181613272565b811461339c57600080fd5b50565b6000813590506133ae81613388565b92915050565b600080604083850312156133cb576133ca61317f565b5b60006133d98582860161339f565b92505060206133ea858286016131a5565b9150509250929050565b60006020820190506134096000830184613243565b92915050565b6000602082840312156134255761342461317f565b5b6000613433848285016131a5565b91505092915050565b6000604082019050613451600083018561330a565b61345e6020830184613284565b9392505050565b6002811061347257600080fd5b50565b60008135905061348481613465565b92915050565b600080600080608085870312156134a4576134a361317f565b5b60006134b287828801613475565b94505060206134c3878288016131a5565b93505060406134d4878288016131db565b92505060606134e5878288016131db565b91505092959194509250565b60006020820190506135066000830184613284565b92915050565b600080604083850312156135235761352261317f565b5b6000613531858286016131a5565b92505060206135428582860161339f565b9150509250929050565b6000806000606084860312156135655761356461317f565b5b600061357386828701613475565b9350506020613584868287016131a5565b9250506040613595868287016131db565b9150509250925092565b6000602082840312156135b5576135b461317f565b5b60006135c3848285016131db565b91505092915050565b60006020820190506135e1600083018461330a565b92915050565b600080604083850312156135fe576135fd61317f565b5b600061360c858286016131db565b925050602061361d858286016131a5565b9150509250929050565b6000806040838503121561363e5761363d61317f565b5b600061364c858286016131a5565b925050602061365d85828601613475565b9150509250929050565b600081519050919050565b600082825260208201905092915050565b6000819050602082019050919050565b61369c816131ba565b82525050565b6136ab81613272565b82525050565b6136ba816132e9565b82525050565b6136c981613184565b82525050565b60e0820160008201516136e56000850182613693565b5060208201516136f860208501826136a2565b50604082015161370b60408501826136b1565b50606082015161371e60608501826136c0565b5060808201516137316080850182613693565b5060a082015161374460a0850182613693565b5060c082015161375760c0850182613693565b50505050565b600061376983836136cf565b60e08301905092915050565b6000602082019050919050565b600061378d82613667565b6137978185613672565b93506137a283613683565b8060005b838110156137d35781516137ba888261375d565b97506137c583613775565b9250506001810190506137a6565b5085935050505092915050565b600060208201905081810360008301526137fa8184613782565b905092915050565b6000602082840312156138185761381761317f565b5b60006138268482850161339f565b91505092915050565b7f4e487b7100000000000000000000000000000000000000000000000000000000600052601160045260246000fd5b6000613869826131ba565b9150613874836131ba565b9250827fffffffffffffffffffffffffffffffffffffffffffffffffffffffffffffffff038211156138a9576138a861382f565b5b828201905092915050565b60006138bf826131ba565b91506138ca836131ba565b9250817fffffffffffffffffffffffffffffffffffffffffffffffffffffffffffffffff04831182151516156139035761390261382f565b5b828202905092915050565b6000613919826131ba565b9150613924836131ba565b9250828210156139375761393661382f565b5b828203905092915050565b7f4e487b7100000000000000000000000000000000000000000000000000000000600052603260045260246000fd5b600061397c826131ba565b915060008214156139905761398f61382f565b5b600182039050919050565b60006139a6826131ba565b91507fffffffffffffffffffffffffffffffffffffffffffffffffffffffffffffffff8214156139d9576139d861382f565b5b600182019050919050565b600082825260208201905092915050565b7f4f776e61626c653a2063616c6c6572206973206e6f7420746865206f776e6572600082015250565b6000613a2b6020836139e4565b9150613a36826139f5565b602082019050919050565b60006020820190508181036000830152613a5a81613a1e565b9050919050565b7f496e73756666696369656e742062616c616e6365000000000000000000000000600082015250565b6000613a976014836139e4565b9150613aa282613a61565b602082019050919050565b60006020820190508181036000830152613ac681613a8a565b9050919050565b7f496e73756666696369656e74204554482062616c616e63650000000000000000600082015250565b6000613b036018836139e4565b9150613b0e82613acd565b602082019050919050565b60006020820190508181036000830152613b3281613af6565b9050919050565b7f53656c6c65722068617320696e73756666696369656e7420546f6b656e20626160008201527f6c616e6365000000000000000000000000000000000000000000000000000000602082015250565b6000613b956025836139e4565b9150613ba082613b39565b604082019050919050565b60006020820190508181036000830152613bc481613b88565b9050919050565b7f496e73756666696369656e7420546f6b656e2062616c616e6365000000000000600082015250565b6000613c01601a836139e4565b9150613c0c82613bcb565b602082019050919050565b60006020820190508181036000830152613c3081613bf4565b9050919050565b7f42757965722068617320696e73756666696369656e74204554482062616c616e60008201527f6365000000000000000000000000000000000000000000000000000000000000602082015250565b6000613c936022836139e4565b9150613c9e82613c37565b604082019050919050565b60006020820190508181036000830152613cc281613c86565b9050919050565b7f4e487b7100000000000000000000000000000000000000000000000000000000600052603160045260246000fd5b7f546f6b656e20646f6573206e6f74206578697374210000000000000000000000600082015250565b6000613d2e6015836139e4565b9150613d3982613cf8565b602082019050919050565b60006020820190508181036000830152613d5d81613d21565b9050919050565b7f496e73756666696369656e742042616c616e6365210000000000000000000000600082015250565b6000613d9a6015836139e4565b9150613da582613d64565b602082019050919050565b60006020820190508181036000830152613dc981613d8d565b9050919050565b6000604082019050613de56000830185613284565b613df26020830184613243565b9392505050565b60008115159050919050565b613e0e81613df9565b8114613e1957600080fd5b50565b600081519050613e2b81613e05565b92915050565b600060208284031215613e4757613e4661317f565b5b6000613e5584828501613e1c565b91505092915050565b7f496e7375666669656e742062616c616e63650000000000000000000000000000600082015250565b6000613e946012836139e4565b9150613e9f82613e5e565b602082019050919050565b60006020820190508181036000830152613ec381613e87565b9050919050565b6000606082019050613edf6000830186613284565b613eec6020830185613284565b613ef96040830184613243565b949350505050565b7f4f776e61626c653a206e6577206f776e657220697320746865207a65726f206160008201527f6464726573730000000000000000000000000000000000000000000000000000602082015250565b6000613f5d6026836139e4565b9150613f6882613f01565b604082019050919050565b60006020820190508181036000830152613f8c81613f50565b905091905056fea2646970667358221220a2dc3565794573b478aa4994c5cfb68bec4485fc284e6e26fd211a0c84a126c264736f6c634300080a0033",
  "immutableReferences": {},
  "source": "//SPDX-License-Identifier: MIT\npragma solidity ^0.8.0;\n\nimport \"./wallet.sol\";\n\ncontract Dex is Wallet {\n    enum Side {\n        BUY,\n        SELL\n    }\n    struct Order {\n        uint id;\n        address trader;\n        Side side;\n        bytes32 ticker;\n        uint amount;\n        uint price;\n        uint filled;\n    }\n\n    uint public nextOrderId=0;\n\n    mapping(bytes32 => mapping(uint => Order[])) public orderBook;\n\n    function getOrderBook(bytes32 ticker, Side side) view public returns(Order[] memory) {\n        return orderBook[ticker][uint(side)];\n    }\n    function createLimitOrder(Side side, bytes32 ticker, uint amount, uint price) public {\n        if (side == Side.BUY){\n            require(balances[msg.sender][\"ETH\"] >= amount*price);\n        } else if (side == Side.SELL){\n            require(balances[msg.sender][ticker] >= amount);\n        }\n\n        Order[] storage orders = orderBook[ticker][uint(side)];\n        orders.push(\n            Order(nextOrderId, msg.sender, side, ticker, amount, price, 0)\n        );\n\n        //Bubble sort [300, 100, 200]\n        if(side==Side.BUY){\n            for (uint i=orders.length-1; i>0; i--) {\n                if (orders[i-1].price < orders[i].price){\n                    Order memory less=orders[i-1];\n                    orders[i-1]=orders[i];\n                    orders[i]=less;\n                }\n            }\n        } else if (side==Side.SELL){\n            for (uint i=orders.length-1; i>0; i--) {\n                if (orders[i-1].price > orders[i].price){\n                    Order memory great=orders[i-1];\n                    orders[i-1]=orders[i];\n                    orders[i]=great;\n                }\n            }\n        }\n\n\n        nextOrderId++;\n    }\n\n    function createMarketOrder(Side side, bytes32 ticker, uint amount) public{\n        uint orderBookSide;\n        if (side==Side.BUY) {\n            orderBookSide=1;\n        } else if (side==Side.SELL) {\n            require(balances[msg.sender][ticker]>=amount, \"Insufficient balance\");\n            orderBookSide=0;\n        }\n        Order[] storage orders = orderBook[ticker][orderBookSide];\n        //if (side==Side.BUY) {\n        //    uint estimatePrice = 0;\n        //    uint remainder = amount;\n\n        //    for (uint i=0; i<orders.length && remainder>0 ; i++){\n        //        if (remainder > orders[i].amount) {\n        //            remainder-=orders[i].amount;\n        //            estimatePrice+=(orders[i].price*orders[i].amount);\n        //        }else{\n        //            estimatePrice+=(orders[i].price*remainder);\n        //            remaider=0;\n        //        }\n        //    }\n        //    estimatePrice==0 ? estimatePrice=1*amount : estimatePrice;\n        //    require(balances[msg.sender][\"ETH\"]>=estimatePrice, \"Insufficient ETH balance\");\n        \n        //} else if (side==Side.SELL) {\n        //    require(balances[msg.sender][ticker]>=amount, \"Insufficient balance\");\n        //}\n\n        uint remainder=amount;\n\n        for (uint i=0; i<orders.length && remainder>0 ; i++) {\n            uint fillAmount=orders[i].amount-orders[i].filled;\n            if(side==Side.BUY){\n                uint estimatePrice;\n                if (remainder > fillAmount) {\n                    estimatePrice+=(orders[i].price*fillAmount);\n                    require(balances[msg.sender][\"ETH\"]>=estimatePrice, \"Insufficient ETH balance\");\n                    require(balances[orders[i].trader][ticker]>=fillAmount, \"Seller has insufficient Token balance\");\n                    balances[msg.sender][\"ETH\"]-=estimatePrice;\n                    balances[msg.sender][ticker]+=fillAmount;\n                    balances[orders[i].trader][\"ETH\"]+=estimatePrice;\n                    balances[orders[i].trader][ticker]-=fillAmount;\n                    orders[i].filled+=fillAmount;\n                    remainder-=fillAmount;\n                }else{\n                    estimatePrice+=(orders[i].price*remainder);\n                    require(balances[msg.sender][\"ETH\"]>=estimatePrice, \"Insufficient ETH balance\");\n                    require(balances[orders[i].trader][ticker]>=remainder, \"Seller has insufficient Token balance\");\n                    balances[msg.sender][\"ETH\"]-=estimatePrice;\n                    balances[msg.sender][ticker]+=remainder;\n                    balances[orders[i].trader][\"ETH\"]+=estimatePrice;\n                    balances[orders[i].trader][ticker]-=remainder;\n                    orders[i].filled+=remainder;\n                    remainder=0;\n                }\n            } else if (side==Side.BUY){\n                if (remainder > fillAmount) {\n                    require(balances[msg.sender][ticker]>=fillAmount, \"Insufficient Token balance\");\n                    require(balances[orders[i].trader][\"ETH\"]>=(fillAmount*orders[i].price), \"Buyer has insufficient ETH balance\");\n                    balances[msg.sender][ticker]-=fillAmount;\n                    balances[msg.sender][\"ETH\"]+=(fillAmount*orders[i].price);\n                    balances[orders[i].trader][ticker]+=fillAmount;\n                    balances[orders[i].trader][\"ETH\"]-=(fillAmount*orders[i].price);\n                    orders[i].filled+=fillAmount;\n                    remainder-=fillAmount;\n                }else{\n                    require(balances[msg.sender][ticker]>=remainder, \"Insufficient Token balance\");\n                    require(balances[orders[i].trader][\"ETH\"]>=(remainder*orders[i].price), \"Buyer has insufficient ETH balance\");\n                    balances[msg.sender][ticker]-=remainder;\n                    balances[msg.sender][\"ETH\"]+=(remainder*orders[i].price);\n                    balances[orders[i].trader][ticker]+=remainder;\n                    balances[orders[i].trader][\"ETH\"]-=(remainder*orders[i].price);\n                    orders[i].filled+=remainder;\n                    remainder=0;\n                }\n            }\n        }\n\n        for (uint i=orders.length; i>0; i--){\n            if (orders[i-1].amount==orders[i-1].filled) {\n                for (uint j=i-1; j<orders.length-1; j++){\n                    orders[j] = orders[j+1];\n                }\n                orders.pop();\n            }\n        }\n\n    }\n}",
  "sourcePath": "/Users/nerdjango/Dev/ethereum201/dex/contracts/dex.sol",
  "compiler": {
    "name": "solc",
    "version": "0.8.10+commit.fc410830.Emscripten.clang"
  },
  "schemaVersion": "3.4.3",
  "updatedAt": "2021-11-23T16:20:44.901Z",
  "networkType": "ethereum",
  "devdoc": {
    "kind": "dev",
    "methods": {
      "owner()": {
        "details": "Returns the address of the current owner."
      },
      "renounceOwnership()": {
        "details": "Leaves the contract without owner. It will not be possible to call `onlyOwner` functions anymore. Can only be called by the current owner. NOTE: Renouncing ownership will leave the contract without an owner, thereby removing any functionality that is only available to the owner."
      },
      "transferOwnership(address)": {
        "details": "Transfers ownership of the contract to a new account (`newOwner`). Can only be called by the current owner."
      }
    },
    "version": 1
  },
  "userdoc": {
    "kind": "user",
    "methods": {},
    "version": 1
  }
}